{
  "_format": "hh-sol-artifact-1",
  "contractName": "UltimateBSCCoin",
  "sourceName": "contracts/UltimateBSCCoin.sol",
  "abi": [
    {
      "inputs": [
        {
          "internalType": "address",
          "name": "_router",
          "type": "address"
        },
        {
          "internalType": "address",
          "name": "_marketingWallet",
          "type": "address"
        }
      ],
      "stateMutability": "nonpayable",
      "type": "constructor"
    },
    {
      "inputs": [
        {
          "internalType": "address",
          "name": "spender",
          "type": "address"
        },
        {
          "internalType": "uint256",
          "name": "allowance",
          "type": "uint256"
        },
        {
          "internalType": "uint256",
          "name": "needed",
          "type": "uint256"
        }
      ],
      "name": "ERC20InsufficientAllowance",
      "type": "error"
    },
    {
      "inputs": [
        {
          "internalType": "address",
          "name": "sender",
          "type": "address"
        },
        {
          "internalType": "uint256",
          "name": "balance",
          "type": "uint256"
        },
        {
          "internalType": "uint256",
          "name": "needed",
          "type": "uint256"
        }
      ],
      "name": "ERC20InsufficientBalance",
      "type": "error"
    },
    {
      "inputs": [
        {
          "internalType": "address",
          "name": "approver",
          "type": "address"
        }
      ],
      "name": "ERC20InvalidApprover",
      "type": "error"
    },
    {
      "inputs": [
        {
          "internalType": "address",
          "name": "receiver",
          "type": "address"
        }
      ],
      "name": "ERC20InvalidReceiver",
      "type": "error"
    },
    {
      "inputs": [
        {
          "internalType": "address",
          "name": "sender",
          "type": "address"
        }
      ],
      "name": "ERC20InvalidSender",
      "type": "error"
    },
    {
      "inputs": [
        {
          "internalType": "address",
          "name": "spender",
          "type": "address"
        }
      ],
      "name": "ERC20InvalidSpender",
      "type": "error"
    },
    {
      "inputs": [
        {
          "internalType": "address",
          "name": "owner",
          "type": "address"
        }
      ],
      "name": "OwnableInvalidOwner",
      "type": "error"
    },
    {
      "inputs": [
        {
          "internalType": "address",
          "name": "account",
          "type": "address"
        }
      ],
      "name": "OwnableUnauthorizedAccount",
      "type": "error"
    },
    {
      "anonymous": false,
      "inputs": [
        {
          "indexed": true,
          "internalType": "address",
          "name": "owner",
          "type": "address"
        },
        {
          "indexed": true,
          "internalType": "address",
          "name": "spender",
          "type": "address"
        },
        {
          "indexed": false,
          "internalType": "uint256",
          "name": "value",
          "type": "uint256"
        }
      ],
      "name": "Approval",
      "type": "event"
    },
    {
      "anonymous": false,
      "inputs": [
        {
          "indexed": true,
          "internalType": "address",
          "name": "account",
          "type": "address"
        },
        {
          "indexed": false,
          "internalType": "bool",
          "name": "isExcluded",
          "type": "bool"
        }
      ],
      "name": "ExcludeFromFees",
      "type": "event"
    },
    {
      "anonymous": false,
      "inputs": [
        {
          "indexed": true,
          "internalType": "address",
          "name": "previousOwner",
          "type": "address"
        },
        {
          "indexed": true,
          "internalType": "address",
          "name": "newOwner",
          "type": "address"
        }
      ],
      "name": "OwnershipTransferred",
      "type": "event"
    },
    {
      "anonymous": false,
      "inputs": [
        {
          "indexed": true,
          "internalType": "address",
          "name": "pair",
          "type": "address"
        },
        {
          "indexed": true,
          "internalType": "bool",
          "name": "value",
          "type": "bool"
        }
      ],
      "name": "SetAutomatedMarketMakerPair",
      "type": "event"
    },
    {
      "anonymous": false,
      "inputs": [
        {
          "indexed": false,
          "internalType": "uint256",
          "name": "tokenSwapped",
          "type": "uint256"
        },
        {
          "indexed": false,
          "internalType": "uint256",
          "name": "ethReceived",
          "type": "uint256"
        },
        {
          "indexed": false,
          "internalType": "uint256",
          "name": "tokensIntoLiquidity",
          "type": "uint256"
        }
      ],
      "name": "SwapAndLiquify",
      "type": "event"
    },
    {
      "anonymous": false,
      "inputs": [
        {
          "indexed": true,
          "internalType": "address",
          "name": "from",
          "type": "address"
        },
        {
          "indexed": true,
          "internalType": "address",
          "name": "to",
          "type": "address"
        },
        {
          "indexed": false,
          "internalType": "uint256",
          "name": "value",
          "type": "uint256"
        }
      ],
      "name": "Transfer",
      "type": "event"
    },
    {
      "inputs": [
        {
          "internalType": "address",
          "name": "owner",
          "type": "address"
        },
        {
          "internalType": "address",
          "name": "spender",
          "type": "address"
        }
      ],
      "name": "allowance",
      "outputs": [
        {
          "internalType": "uint256",
          "name": "",
          "type": "uint256"
        }
      ],
      "stateMutability": "view",
      "type": "function"
    },
    {
      "inputs": [
        {
          "internalType": "address",
          "name": "spender",
          "type": "address"
        },
        {
          "internalType": "uint256",
          "name": "value",
          "type": "uint256"
        }
      ],
      "name": "approve",
      "outputs": [
        {
          "internalType": "bool",
          "name": "",
          "type": "bool"
        }
      ],
      "stateMutability": "nonpayable",
      "type": "function"
    },
    {
      "inputs": [
        {
          "internalType": "address",
          "name": "",
          "type": "address"
        }
      ],
      "name": "automatedMarketMakerPairs",
      "outputs": [
        {
          "internalType": "bool",
          "name": "",
          "type": "bool"
        }
      ],
      "stateMutability": "view",
      "type": "function"
    },
    {
      "inputs": [
        {
          "internalType": "address",
          "name": "account",
          "type": "address"
        }
      ],
      "name": "balanceOf",
      "outputs": [
        {
          "internalType": "uint256",
          "name": "",
          "type": "uint256"
        }
      ],
      "stateMutability": "view",
      "type": "function"
    },
    {
      "inputs": [],
      "name": "buyTaxes",
      "outputs": [
        {
          "internalType": "uint256",
          "name": "marketing",
          "type": "uint256"
        },
        {
          "internalType": "uint256",
          "name": "liquidity",
          "type": "uint256"
        },
        {
          "internalType": "uint256",
          "name": "total",
          "type": "uint256"
        }
      ],
      "stateMutability": "view",
      "type": "function"
    },
    {
      "inputs": [],
      "name": "decimals",
      "outputs": [
        {
          "internalType": "uint8",
          "name": "",
          "type": "uint8"
        }
      ],
      "stateMutability": "view",
      "type": "function"
    },
    {
      "inputs": [],
      "name": "enableTrading",
      "outputs": [],
      "stateMutability": "nonpayable",
      "type": "function"
    },
    {
      "inputs": [
        {
          "internalType": "address",
          "name": "account",
          "type": "address"
        },
        {
          "internalType": "bool",
          "name": "excluded",
          "type": "bool"
        }
      ],
      "name": "excludeFromFees",
      "outputs": [],
      "stateMutability": "nonpayable",
      "type": "function"
    },
    {
      "inputs": [
        {
          "internalType": "address",
          "name": "account",
          "type": "address"
        },
        {
          "internalType": "bool",
          "name": "excluded",
          "type": "bool"
        }
      ],
      "name": "excludeFromMaxTransaction",
      "outputs": [],
      "stateMutability": "nonpayable",
      "type": "function"
    },
    {
      "inputs": [
        {
          "internalType": "address",
          "name": "",
          "type": "address"
        }
      ],
      "name": "isBlacklisted",
      "outputs": [
        {
          "internalType": "bool",
          "name": "",
          "type": "bool"
        }
      ],
      "stateMutability": "view",
      "type": "function"
    },
    {
      "inputs": [
        {
          "internalType": "address",
          "name": "",
          "type": "address"
        }
      ],
      "name": "isExculdedFromFees",
      "outputs": [
        {
          "internalType": "bool",
          "name": "",
          "type": "bool"
        }
      ],
      "stateMutability": "view",
      "type": "function"
    },
    {
      "inputs": [
        {
          "internalType": "address",
          "name": "",
          "type": "address"
        }
      ],
      "name": "isExculdedFromMaxTransaction",
      "outputs": [
        {
          "internalType": "bool",
          "name": "",
          "type": "bool"
        }
      ],
      "stateMutability": "view",
      "type": "function"
    },
    {
      "inputs": [],
      "name": "marketingWallet",
      "outputs": [
        {
          "internalType": "address",
          "name": "",
          "type": "address"
        }
      ],
      "stateMutability": "view",
      "type": "function"
    },
    {
      "inputs": [],
      "name": "maxTxAmount",
      "outputs": [
        {
          "internalType": "uint256",
          "name": "",
          "type": "uint256"
        }
      ],
      "stateMutability": "view",
      "type": "function"
    },
    {
      "inputs": [],
      "name": "maxWalletAmount",
      "outputs": [
        {
          "internalType": "uint256",
          "name": "",
          "type": "uint256"
        }
      ],
      "stateMutability": "view",
      "type": "function"
    },
    {
      "inputs": [],
      "name": "name",
      "outputs": [
        {
          "internalType": "string",
          "name": "",
          "type": "string"
        }
      ],
      "stateMutability": "view",
      "type": "function"
    },
    {
      "inputs": [],
      "name": "owner",
      "outputs": [
        {
          "internalType": "address",
          "name": "",
          "type": "address"
        }
      ],
      "stateMutability": "view",
      "type": "function"
    },
    {
      "inputs": [],
      "name": "pair",
      "outputs": [
        {
          "internalType": "address",
          "name": "",
          "type": "address"
        }
      ],
      "stateMutability": "view",
      "type": "function"
    },
    {
      "inputs": [],
      "name": "renounceOwnership",
      "outputs": [],
      "stateMutability": "nonpayable",
      "type": "function"
    },
    {
      "inputs": [],
      "name": "router",
      "outputs": [
        {
          "internalType": "contract IUniswapV2Router02",
          "name": "",
          "type": "address"
        }
      ],
      "stateMutability": "view",
      "type": "function"
    },
    {
      "inputs": [],
      "name": "sellTaxes",
      "outputs": [
        {
          "internalType": "uint256",
          "name": "marketing",
          "type": "uint256"
        },
        {
          "internalType": "uint256",
          "name": "liquidity",
          "type": "uint256"
        },
        {
          "internalType": "uint256",
          "name": "total",
          "type": "uint256"
        }
      ],
      "stateMutability": "view",
      "type": "function"
    },
    {
      "inputs": [
        {
          "internalType": "address",
          "name": "_pair",
          "type": "address"
        },
        {
          "internalType": "bool",
          "name": "value",
          "type": "bool"
        }
      ],
      "name": "setAutomatedMarketMakerPair",
      "outputs": [],
      "stateMutability": "nonpayable",
      "type": "function"
    },
    {
      "inputs": [
        {
          "internalType": "address",
          "name": "account",
          "type": "address"
        },
        {
          "internalType": "bool",
          "name": "value",
          "type": "bool"
        }
      ],
      "name": "setBlacklist",
      "outputs": [],
      "stateMutability": "nonpayable",
      "type": "function"
    },
    {
      "inputs": [],
      "name": "swapEnabled",
      "outputs": [
        {
          "internalType": "bool",
          "name": "",
          "type": "bool"
        }
      ],
      "stateMutability": "view",
      "type": "function"
    },
    {
      "inputs": [],
      "name": "swapTokensAmount",
      "outputs": [
        {
          "internalType": "uint256",
          "name": "",
          "type": "uint256"
        }
      ],
      "stateMutability": "view",
      "type": "function"
    },
    {
      "inputs": [],
      "name": "symbol",
      "outputs": [
        {
          "internalType": "string",
          "name": "",
          "type": "string"
        }
      ],
      "stateMutability": "view",
      "type": "function"
    },
    {
      "inputs": [],
      "name": "totalSupply",
      "outputs": [
        {
          "internalType": "uint256",
          "name": "",
          "type": "uint256"
        }
      ],
      "stateMutability": "view",
      "type": "function"
    },
    {
      "inputs": [],
      "name": "tradingEnabled",
      "outputs": [
        {
          "internalType": "bool",
          "name": "",
          "type": "bool"
        }
      ],
      "stateMutability": "view",
      "type": "function"
    },
    {
      "inputs": [
        {
          "internalType": "address",
          "name": "to",
          "type": "address"
        },
        {
          "internalType": "uint256",
          "name": "value",
          "type": "uint256"
        }
      ],
      "name": "transfer",
      "outputs": [
        {
          "internalType": "bool",
          "name": "",
          "type": "bool"
        }
      ],
      "stateMutability": "nonpayable",
      "type": "function"
    },
    {
      "inputs": [
        {
          "internalType": "address",
          "name": "from",
          "type": "address"
        },
        {
          "internalType": "address",
          "name": "to",
          "type": "address"
        },
        {
          "internalType": "uint256",
          "name": "value",
          "type": "uint256"
        }
      ],
      "name": "transferFrom",
      "outputs": [
        {
          "internalType": "bool",
          "name": "",
          "type": "bool"
        }
      ],
      "stateMutability": "nonpayable",
      "type": "function"
    },
    {
      "inputs": [
        {
          "internalType": "address",
          "name": "newOwner",
          "type": "address"
        }
      ],
      "name": "transferOwnership",
      "outputs": [],
      "stateMutability": "nonpayable",
      "type": "function"
    },
    {
      "inputs": [
        {
          "internalType": "uint256",
          "name": "_marketing",
          "type": "uint256"
        },
        {
          "internalType": "uint256",
          "name": "_liquidity",
          "type": "uint256"
        }
      ],
      "name": "updateBuyTaxes",
      "outputs": [],
      "stateMutability": "nonpayable",
      "type": "function"
    },
    {
      "inputs": [
        {
          "internalType": "uint256",
          "name": "_maxTxAmount",
          "type": "uint256"
        },
        {
          "internalType": "uint256",
          "name": "_maxWalletAmount",
          "type": "uint256"
        }
      ],
      "name": "updateLimits",
      "outputs": [],
      "stateMutability": "nonpayable",
      "type": "function"
    },
    {
      "inputs": [
        {
          "internalType": "address",
          "name": "newWallet",
          "type": "address"
        }
      ],
      "name": "updateMarketingWallet",
      "outputs": [],
      "stateMutability": "nonpayable",
      "type": "function"
    },
    {
      "inputs": [
        {
          "internalType": "uint256",
          "name": "_marketing",
          "type": "uint256"
        },
        {
          "internalType": "uint256",
          "name": "_liquidity",
          "type": "uint256"
        }
      ],
      "name": "updateSellTaxes",
      "outputs": [],
      "stateMutability": "nonpayable",
      "type": "function"
    },
    {
      "inputs": [
        {
          "internalType": "bool",
          "name": "enabled",
          "type": "bool"
        }
      ],
      "name": "updateSwapEnabled",
      "outputs": [],
      "stateMutability": "nonpayable",
      "type": "function"
    },
    {
      "inputs": [
        {
          "internalType": "uint256",
          "name": "newAmount",
          "type": "uint256"
        }
      ],
      "name": "updateSwapTokensAtAmount",
      "outputs": [],
      "stateMutability": "nonpayable",
      "type": "function"
    },
    {
      "inputs": [],
      "name": "withdrawStuckETH",
      "outputs": [],
      "stateMutability": "nonpayable",
      "type": "function"
    },
    {
      "inputs": [
        {
          "internalType": "address",
          "name": "_token",
          "type": "address"
        },
        {
          "internalType": "address",
          "name": "_to",
          "type": "address"
        }
      ],
      "name": "withdrawStuckToken",
      "outputs": [],
      "stateMutability": "nonpayable",
      "type": "function"
    },
    {
      "stateMutability": "payable",
      "type": "receive"
    }
  ],
  "bytecode": "0x60806040526040518060600160405280600381526020016002815260200160058152506006600082015181600001556020820151816001015560408201518160020155505060405180606001604052806005815260200160058152602001600a815250600960008201518160000155602082015181600101556040820151816002015550506000601160146101000a81548160ff0219169083151502179055506001601160156101000a81548160ff0219169083151502179055503480156100c657600080fd5b5060405161610438038061610483398181016040528101906100e89190611b77565b336040518060400160405280600d81526020017f556c74696d617465204d6f6f6e000000000000000000000000000000000000008152506040518060400160405280600581526020017f554d4f4f4e00000000000000000000000000000000000000000000000000000081525081600390816101649190611e07565b5080600490816101749190611e07565b505050600073ffffffffffffffffffffffffffffffffffffffff168173ffffffffffffffffffffffffffffffffffffffff16036101e95760006040517f1e4fbdf70000000000000000000000000000000000000000000000000000000081526004016101e09190611ee8565b60405180910390fd5b6101f88161092e60201b60201c565b5080600f60006101000a81548173ffffffffffffffffffffffffffffffffffffffff021916908373ffffffffffffffffffffffffffffffffffffffff16021790555081601060006101000a81548173ffffffffffffffffffffffffffffffffffffffff021916908373ffffffffffffffffffffffffffffffffffffffff160217905550601060009054906101000a900473ffffffffffffffffffffffffffffffffffffffff1673ffffffffffffffffffffffffffffffffffffffff1663c45a01556040518163ffffffff1660e01b8152600401602060405180830381865afa1580156102e8573d6000803e3d6000fd5b505050506040513d601f19601f8201168201806040525081019061030c9190611f03565b73ffffffffffffffffffffffffffffffffffffffff1663c9c6539630601060009054906101000a900473ffffffffffffffffffffffffffffffffffffffff1673ffffffffffffffffffffffffffffffffffffffff1663ad5c46486040518163ffffffff1660e01b8152600401602060405180830381865afa158015610395573d6000803e3d6000fd5b505050506040513d601f19601f820116820180604052508101906103b99190611f03565b6040518363ffffffff1660e01b81526004016103d6929190611f30565b6020604051808303816000875af11580156103f5573d6000803e3d6000fd5b505050506040513d601f19601f820116820180604052508101906104199190611f03565b601160006101000a81548173ffffffffffffffffffffffffffffffffffffffff021916908373ffffffffffffffffffffffffffffffffffffffff160217905550600160146000601160009054906101000a900473ffffffffffffffffffffffffffffffffffffffff1673ffffffffffffffffffffffffffffffffffffffff1673ffffffffffffffffffffffffffffffffffffffff16815260200190815260200160002060006101000a81548160ff0219169083151502179055506001601260003373ffffffffffffffffffffffffffffffffffffffff1673ffffffffffffffffffffffffffffffffffffffff16815260200190815260200160002060006101000a81548160ff0219169083151502179055506001601260003073ffffffffffffffffffffffffffffffffffffffff1673ffffffffffffffffffffffffffffffffffffffff16815260200190815260200160002060006101000a81548160ff02191690831515021790555060016012600061dead73ffffffffffffffffffffffffffffffffffffffff1673ffffffffffffffffffffffffffffffffffffffff16815260200190815260200160002060006101000a81548160ff0219169083151502179055506001601260008373ffffffffffffffffffffffffffffffffffffffff1673ffffffffffffffffffffffffffffffffffffffff16815260200190815260200160002060006101000a81548160ff0219169083151502179055506001601360003373ffffffffffffffffffffffffffffffffffffffff1673ffffffffffffffffffffffffffffffffffffffff16815260200190815260200160002060006101000a81548160ff0219169083151502179055506001601360003073ffffffffffffffffffffffffffffffffffffffff1673ffffffffffffffffffffffffffffffffffffffff16815260200190815260200160002060006101000a81548160ff02191690831515021790555060016013600061dead73ffffffffffffffffffffffffffffffffffffffff1673ffffffffffffffffffffffffffffffffffffffff16815260200190815260200160002060006101000a81548160ff0219169083151502179055506001601360008373ffffffffffffffffffffffffffffffffffffffff1673ffffffffffffffffffffffffffffffffffffffff16815260200190815260200160002060006101000a81548160ff021916908315150217905550600160136000601060009054906101000a900473ffffffffffffffffffffffffffffffffffffffff1673ffffffffffffffffffffffffffffffffffffffff1673ffffffffffffffffffffffffffffffffffffffff16815260200190815260200160002060006101000a81548160ff021916908315150217905550600160136000601160009054906101000a900473ffffffffffffffffffffffffffffffffffffffff1673ffffffffffffffffffffffffffffffffffffffff1673ffffffffffffffffffffffffffffffffffffffff16815260200190815260200160002060006101000a81548160ff021916908315150217905550600061089b6109f460201b60201c565b600a6108a791906120c8565b633b9aca006108b69190612113565b905060646002826108c79190612113565b6108d19190612184565b600c8190555060646003826108e69190612113565b6108f09190612184565b600d819055506103e86005826109069190612113565b6109109190612184565b600e8190555061092633826109fd60201b60201c565b50505061278a565b6000600560009054906101000a900473ffffffffffffffffffffffffffffffffffffffff16905081600560006101000a81548173ffffffffffffffffffffffffffffffffffffffff021916908373ffffffffffffffffffffffffffffffffffffffff1602179055508173ffffffffffffffffffffffffffffffffffffffff168173ffffffffffffffffffffffffffffffffffffffff167f8be0079c531659141344cd1fd0a4f28419497f9722a3daafe3b4186f6b6457e060405160405180910390a35050565b60006012905090565b600073ffffffffffffffffffffffffffffffffffffffff168273ffffffffffffffffffffffffffffffffffffffff1603610a6f5760006040517fec442f05000000000000000000000000000000000000000000000000000000008152600401610a669190611ee8565b60405180910390fd5b610a8160008383610a8560201b60201c565b5050565b601560008473ffffffffffffffffffffffffffffffffffffffff1673ffffffffffffffffffffffffffffffffffffffff16815260200190815260200160002060009054906101000a900460ff16158015610b295750601560008373ffffffffffffffffffffffffffffffffffffffff1673ffffffffffffffffffffffffffffffffffffffff16815260200190815260200160002060009054906101000a900460ff16155b610b68576040517f08c379a0000000000000000000000000000000000000000000000000000000008152600401610b5f90612212565b60405180910390fd5b601160149054906101000a900460ff16610c5d57601260008473ffffffffffffffffffffffffffffffffffffffff1673ffffffffffffffffffffffffffffffffffffffff16815260200190815260200160002060009054906101000a900460ff1680610c1d5750601260008373ffffffffffffffffffffffffffffffffffffffff1673ffffffffffffffffffffffffffffffffffffffff16815260200190815260200160002060009054906101000a900460ff165b610c5c576040517f08c379a0000000000000000000000000000000000000000000000000000000008152600401610c539061227e565b60405180910390fd5b5b6000600e54610c713061117b60201b60201c565b10159050808015610c8e5750601160159054906101000a900460ff165b8015610ca75750601160169054906101000a900460ff16155b8015610cfd5750601460008573ffffffffffffffffffffffffffffffffffffffff1673ffffffffffffffffffffffffffffffffffffffff16815260200190815260200160002060009054906101000a900460ff16155b8015610d535750601260008573ffffffffffffffffffffffffffffffffffffffff1673ffffffffffffffffffffffffffffffffffffffff16815260200190815260200160002060009054906101000a900460ff16155b8015610da95750601260008473ffffffffffffffffffffffffffffffffffffffff1673ffffffffffffffffffffffffffffffffffffffff16815260200190815260200160002060009054906101000a900460ff16155b15610df3576001601160166101000a81548160ff021916908315150217905550610dd76111c360201b60201c565b6000601160166101000a81548160ff0219169083151502179055505b6000601160169054906101000a900460ff16159050601260008673ffffffffffffffffffffffffffffffffffffffff1673ffffffffffffffffffffffffffffffffffffffff16815260200190815260200160002060009054906101000a900460ff1680610ea95750601260008573ffffffffffffffffffffffffffffffffffffffff1673ffffffffffffffffffffffffffffffffffffffff16815260200190815260200160002060009054906101000a900460ff165b15610eb357600090505b6000811561116257601460008773ffffffffffffffffffffffffffffffffffffffff1673ffffffffffffffffffffffffffffffffffffffff16815260200190815260200160002060009054906101000a900460ff168015610f5e5750601360008673ffffffffffffffffffffffffffffffffffffffff1673ffffffffffffffffffffffffffffffffffffffff16815260200190815260200160002060009054906101000a900460ff16155b1561102a57600c54841115610fa8576040517f08c379a0000000000000000000000000000000000000000000000000000000008152600401610f9f906122ea565b60405180910390fd5b600d5484610fbb8761117b60201b60201c565b610fc5919061230a565b1115611006576040517f08c379a0000000000000000000000000000000000000000000000000000000008152600401610ffd9061238a565b60405180910390fd5b6064600660020154856110199190612113565b6110239190612184565b9050611138565b601460008673ffffffffffffffffffffffffffffffffffffffff1673ffffffffffffffffffffffffffffffffffffffff16815260200190815260200160002060009054906101000a900460ff1680156110cd5750601360008773ffffffffffffffffffffffffffffffffffffffff1673ffffffffffffffffffffffffffffffffffffffff16815260200190815260200160002060009054906101000a900460ff16155b1561113757600c54841115611117576040517f08c379a000000000000000000000000000000000000000000000000000000000815260040161110e906123f6565b60405180910390fd5b60646009600201548561112a9190612113565b6111349190612184565b90505b5b6000811115611161576111528630836113d160201b60201c565b808461115e9190612416565b93505b5b6111738686866113d160201b60201c565b505050505050565b60008060008373ffffffffffffffffffffffffffffffffffffffff1673ffffffffffffffffffffffffffffffffffffffff168152602001908152602001600020549050919050565b60006111d43061117b60201b60201c565b90506000600e54905060008214806111ec5750600081145b156111f85750506113cf565b6014600e546112079190612113565b821115611220576014600e5461121d9190612113565b91505b600060026009600201546009600101548561123b9190612113565b6112459190612184565b61124f9190612184565b90506000818461125f9190612416565b90506000479050611275826115f660201b60201c565b600081476112839190612416565b9050600060026009600101546112999190612184565b6009600201546112a99190612416565b600960000154836112ba9190612113565b6112c49190612184565b9050600081836112d49190612416565b90506000600f60009054906101000a900473ffffffffffffffffffffffffffffffffffffffff1673ffffffffffffffffffffffffffffffffffffffff168360405161131e9061247b565b60006040518083038185875af1925050503d806000811461135b576040519150601f19603f3d011682016040523d82523d6000602084013e611360565b606091505b505090506000871180156113745750600082115b156113c557611389878361183f60201b60201c565b7f17bbfb9a6069321b6ded73bd96327c9e6b7212a5cd51ff219cd61370acafb5618683896040516113bc9392919061249f565b60405180910390a15b5050505050505050505b565b600073ffffffffffffffffffffffffffffffffffffffff168373ffffffffffffffffffffffffffffffffffffffff1603611423578060026000828254611417919061230a565b925050819055506114f6565b60008060008573ffffffffffffffffffffffffffffffffffffffff1673ffffffffffffffffffffffffffffffffffffffff168152602001908152602001600020549050818110156114af578381836040517fe450d38c0000000000000000000000000000000000000000000000000000000081526004016114a6939291906124d6565b60405180910390fd5b8181036000808673ffffffffffffffffffffffffffffffffffffffff1673ffffffffffffffffffffffffffffffffffffffff16815260200190815260200160002081905550505b600073ffffffffffffffffffffffffffffffffffffffff168273ffffffffffffffffffffffffffffffffffffffff160361153f578060026000828254039250508190555061158c565b806000808473ffffffffffffffffffffffffffffffffffffffff1673ffffffffffffffffffffffffffffffffffffffff168152602001908152602001600020600082825401925050819055505b8173ffffffffffffffffffffffffffffffffffffffff168373ffffffffffffffffffffffffffffffffffffffff167fddf252ad1be2c89b69c2b068fc378daa952ba7f163c4a11628f55a4df523b3ef836040516115e9919061250d565b60405180910390a3505050565b6000600267ffffffffffffffff81111561161357611612611bc2565b5b6040519080825280602002602001820160405280156116415781602001602082028036833780820191505090505b509050308160008151811061165957611658612528565b5b602002602001019073ffffffffffffffffffffffffffffffffffffffff16908173ffffffffffffffffffffffffffffffffffffffff1681525050601060009054906101000a900473ffffffffffffffffffffffffffffffffffffffff1673ffffffffffffffffffffffffffffffffffffffff1663ad5c46486040518163ffffffff1660e01b8152600401602060405180830381865afa158015611700573d6000803e3d6000fd5b505050506040513d601f19601f820116820180604052508101906117249190611f03565b8160018151811061173857611737612528565b5b602002602001019073ffffffffffffffffffffffffffffffffffffffff16908173ffffffffffffffffffffffffffffffffffffffff16815250506117a530601060009054906101000a900473ffffffffffffffffffffffffffffffffffffffff168461192560201b60201c565b601060009054906101000a900473ffffffffffffffffffffffffffffffffffffffff1673ffffffffffffffffffffffffffffffffffffffff1663791ac9478360008430426040518663ffffffff1660e01b8152600401611809959493929190612650565b600060405180830381600087803b15801561182357600080fd5b505af1158015611837573d6000803e3d6000fd5b505050505050565b61187230601060009054906101000a900473ffffffffffffffffffffffffffffffffffffffff168461192560201b60201c565b601060009054906101000a900473ffffffffffffffffffffffffffffffffffffffff1673ffffffffffffffffffffffffffffffffffffffff1663f305d71982308560008061dead426040518863ffffffff1660e01b81526004016118db969594939291906126aa565b60606040518083038185885af11580156118f9573d6000803e3d6000fd5b50505050506040513d601f19601f8201168201806040525081019061191e9190612737565b5050505050565b611938838383600161193d60201b60201c565b505050565b600073ffffffffffffffffffffffffffffffffffffffff168473ffffffffffffffffffffffffffffffffffffffff16036119af5760006040517fe602df050000000000000000000000000000000000000000000000000000000081526004016119a69190611ee8565b60405180910390fd5b600073ffffffffffffffffffffffffffffffffffffffff168373ffffffffffffffffffffffffffffffffffffffff1603611a215760006040517f94280d62000000000000000000000000000000000000000000000000000000008152600401611a189190611ee8565b60405180910390fd5b81600160008673ffffffffffffffffffffffffffffffffffffffff1673ffffffffffffffffffffffffffffffffffffffff16815260200190815260200160002060008573ffffffffffffffffffffffffffffffffffffffff1673ffffffffffffffffffffffffffffffffffffffff168152602001908152602001600020819055508015611b0e578273ffffffffffffffffffffffffffffffffffffffff168473ffffffffffffffffffffffffffffffffffffffff167f8c5be1e5ebec7d5bd14f71427d1e84f3dd0314c0f7b2291e5b200ac8c7c3b92584604051611b05919061250d565b60405180910390a35b50505050565b600080fd5b600073ffffffffffffffffffffffffffffffffffffffff82169050919050565b6000611b4482611b19565b9050919050565b611b5481611b39565b8114611b5f57600080fd5b50565b600081519050611b7181611b4b565b92915050565b60008060408385031215611b8e57611b8d611b14565b5b6000611b9c85828601611b62565b9250506020611bad85828601611b62565b9150509250929050565b600081519050919050565b7f4e487b7100000000000000000000000000000000000000000000000000000000600052604160045260246000fd5b7f4e487b7100000000000000000000000000000000000000000000000000000000600052602260045260246000fd5b60006002820490506001821680611c3857607f821691505b602082108103611c4b57611c4a611bf1565b5b50919050565b60008190508160005260206000209050919050565b60006020601f8301049050919050565b600082821b905092915050565b600060088302611cb37fffffffffffffffffffffffffffffffffffffffffffffffffffffffffffffffff82611c76565b611cbd8683611c76565b95508019841693508086168417925050509392505050565b6000819050919050565b6000819050919050565b6000611d04611cff611cfa84611cd5565b611cdf565b611cd5565b9050919050565b6000819050919050565b611d1e83611ce9565b611d32611d2a82611d0b565b848454611c83565b825550505050565b600090565b611d47611d3a565b611d52818484611d15565b505050565b5b81811015611d7657611d6b600082611d3f565b600181019050611d58565b5050565b601f821115611dbb57611d8c81611c51565b611d9584611c66565b81016020851015611da4578190505b611db8611db085611c66565b830182611d57565b50505b505050565b600082821c905092915050565b6000611dde60001984600802611dc0565b1980831691505092915050565b6000611df78383611dcd565b9150826002028217905092915050565b611e1082611bb7565b67ffffffffffffffff811115611e2957611e28611bc2565b5b611e338254611c20565b611e3e828285611d7a565b600060209050601f831160018114611e715760008415611e5f578287015190505b611e698582611deb565b865550611ed1565b601f198416611e7f86611c51565b60005b82811015611ea757848901518255600182019150602085019450602081019050611e82565b86831015611ec45784890151611ec0601f891682611dcd565b8355505b6001600288020188555050505b505050505050565b611ee281611b39565b82525050565b6000602082019050611efd6000830184611ed9565b92915050565b600060208284031215611f1957611f18611b14565b5b6000611f2784828501611b62565b91505092915050565b6000604082019050611f456000830185611ed9565b611f526020830184611ed9565b9392505050565b7f4e487b7100000000000000000000000000000000000000000000000000000000600052601160045260246000fd5b60008160011c9050919050565b6000808291508390505b6001851115611fdf57808604811115611fbb57611fba611f59565b5b6001851615611fca5780820291505b8081029050611fd885611f88565b9450611f9f565b94509492505050565b600082611ff857600190506120b4565b8161200657600090506120b4565b816001811461201c576002811461202657612055565b60019150506120b4565b60ff84111561203857612037611f59565b5b8360020a91508482111561204f5761204e611f59565b5b506120b4565b5060208310610133831016604e8410600b841016171561208a5782820a90508381111561208557612084611f59565b5b6120b4565b6120978484846001611f95565b925090508184048111156120ae576120ad611f59565b5b81810290505b9392505050565b600060ff82169050919050565b60006120d382611cd5565b91506120de836120bb565b925061210b7fffffffffffffffffffffffffffffffffffffffffffffffffffffffffffffffff8484611fe8565b905092915050565b600061211e82611cd5565b915061212983611cd5565b925082820261213781611cd5565b9150828204841483151761214e5761214d611f59565b5b5092915050565b7f4e487b7100000000000000000000000000000000000000000000000000000000600052601260045260246000fd5b600061218f82611cd5565b915061219a83611cd5565b9250826121aa576121a9612155565b5b828204905092915050565b600082825260208201905092915050565b7f4164647265737320697320626c61636b6c697374656400000000000000000000600082015250565b60006121fc6016836121b5565b9150612207826121c6565b602082019050919050565b6000602082019050818103600083015261222b816121ef565b9050919050565b7f54726164696e67206973206e6f74206163746976652e00000000000000000000600082015250565b60006122686016836121b5565b915061227382612232565b602082019050919050565b600060208201905081810360008301526122978161225b565b9050919050565b7f42757920616d6f756e742065786365656473206d61785478416d6f756e740000600082015250565b60006122d4601e836121b5565b91506122df8261229e565b602082019050919050565b60006020820190508181036000830152612303816122c7565b9050919050565b600061231582611cd5565b915061232083611cd5565b925082820190508082111561233857612337611f59565b5b92915050565b7f45786365656473206d617857616c6c6574416d6f756e74000000000000000000600082015250565b60006123746017836121b5565b915061237f8261233e565b602082019050919050565b600060208201905081810360008301526123a381612367565b9050919050565b7f53656c6c20616d6f756e742065786365656473206d61785478416d6f756e7400600082015250565b60006123e0601f836121b5565b91506123eb826123aa565b602082019050919050565b6000602082019050818103600083015261240f816123d3565b9050919050565b600061242182611cd5565b915061242c83611cd5565b925082820390508181111561244457612443611f59565b5b92915050565b600081905092915050565b50565b600061246560008361244a565b915061247082612455565b600082019050919050565b600061248682612458565b9150819050919050565b61249981611cd5565b82525050565b60006060820190506124b46000830186612490565b6124c16020830185612490565b6124ce6040830184612490565b949350505050565b60006060820190506124eb6000830186611ed9565b6124f86020830185612490565b6125056040830184612490565b949350505050565b60006020820190506125226000830184612490565b92915050565b7f4e487b7100000000000000000000000000000000000000000000000000000000600052603260045260246000fd5b6000819050919050565b600061257c61257761257284612557565b611cdf565b611cd5565b9050919050565b61258c81612561565b82525050565b600081519050919050565b600082825260208201905092915050565b6000819050602082019050919050565b6125c781611b39565b82525050565b60006125d983836125be565b60208301905092915050565b6000602082019050919050565b60006125fd82612592565b612607818561259d565b9350612612836125ae565b8060005b8381101561264357815161262a88826125cd565b9750612635836125e5565b925050600181019050612616565b5085935050505092915050565b600060a0820190506126656000830188612490565b6126726020830187612583565b818103604083015261268481866125f2565b90506126936060830185611ed9565b6126a06080830184612490565b9695505050505050565b600060c0820190506126bf6000830189611ed9565b6126cc6020830188612490565b6126d96040830187612583565b6126e66060830186612583565b6126f36080830185611ed9565b61270060a0830184612490565b979650505050505050565b61271481611cd5565b811461271f57600080fd5b50565b6000815190506127318161270b565b92915050565b6000806000606084860312156127505761274f611b14565b5b600061275e86828701612722565b935050602061276f86828701612722565b925050604061278086828701612722565b9150509250925092565b61396b806127996000396000f3fe6080604052600436106102345760003560e01c806390d964851161012e578063bc205ad3116100ab578063f2fde38b1161006f578063f2fde38b1461084a578063f5648a4f14610873578063f66895a31461088a578063f887ea40146108b7578063fe575a87146108e25761023b565b8063bc205ad314610755578063c02466681461077e578063c1bebb5d146107a7578063d257b34f146107e4578063dd62ed3e1461080d5761023b565b8063a8aa1b31116100f2578063a8aa1b311461065c578063a9059cbb14610687578063aa4bde28146106c4578063aacebbe3146106ef578063b62496f5146107185761023b565b806390d9648514610579578063924de9b7146105b657806395d89b41146105df5780639a7a23d61461060a578063a2240e19146106335761023b565b80635f1c3182116101bc57806375f0a8741161018057806375f0a874146104b4578063864701a5146104df5780638a8c523c1461050c5780638c0b5e22146105235780638da5cb5b1461054e5761023b565b80635f1c3182146103e15780636ddd17131461040c57806370a0823114610437578063715018a6146104745780637571336a1461048b5761023b565b806318160ddd1161020357806318160ddd146102fa57806323b872dd146103255780632d77a2bf14610362578063313ce5671461038b5780634ada218b146103b65761023b565b806306fdde0314610240578063095ea7b31461026b5780630a0bc661146102a8578063153b0d1e146102d15761023b565b3661023b57005b600080fd5b34801561024c57600080fd5b5061025561091f565b6040516102629190612984565b60405180910390f35b34801561027757600080fd5b50610292600480360381019061028d9190612a3f565b6109b1565b60405161029f9190612a9a565b60405180910390f35b3480156102b457600080fd5b506102cf60048036038101906102ca9190612ab5565b6109d4565b005b3480156102dd57600080fd5b506102f860048036038101906102f39190612b21565b610a52565b005b34801561030657600080fd5b5061030f610ab5565b60405161031c9190612b70565b60405180910390f35b34801561033157600080fd5b5061034c60048036038101906103479190612b8b565b610abf565b6040516103599190612a9a565b60405180910390f35b34801561036e57600080fd5b5061038960048036038101906103849190612ab5565b610aee565b005b34801561039757600080fd5b506103a0610b6c565b6040516103ad9190612bfa565b60405180910390f35b3480156103c257600080fd5b506103cb610b75565b6040516103d89190612a9a565b60405180910390f35b3480156103ed57600080fd5b506103f6610b88565b6040516104039190612b70565b60405180910390f35b34801561041857600080fd5b50610421610b8e565b60405161042e9190612a9a565b60405180910390f35b34801561044357600080fd5b5061045e60048036038101906104599190612c15565b610ba1565b60405161046b9190612b70565b60405180910390f35b34801561048057600080fd5b50610489610be9565b005b34801561049757600080fd5b506104b260048036038101906104ad9190612b21565b610bfd565b005b3480156104c057600080fd5b506104c9610c60565b6040516104d69190612c51565b60405180910390f35b3480156104eb57600080fd5b506104f4610c86565b60405161050393929190612c6c565b60405180910390f35b34801561051857600080fd5b50610521610c9e565b005b34801561052f57600080fd5b50610538610cc3565b6040516105459190612b70565b60405180910390f35b34801561055a57600080fd5b50610563610cc9565b6040516105709190612c51565b60405180910390f35b34801561058557600080fd5b506105a0600480360381019061059b9190612c15565b610cf3565b6040516105ad9190612a9a565b60405180910390f35b3480156105c257600080fd5b506105dd60048036038101906105d89190612ca3565b610d13565b005b3480156105eb57600080fd5b506105f4610d38565b6040516106019190612984565b60405180910390f35b34801561061657600080fd5b50610631600480360381019061062c9190612b21565b610dca565b005b34801561063f57600080fd5b5061065a60048036038101906106559190612ab5565b610e70565b005b34801561066857600080fd5b50610671610f4f565b60405161067e9190612c51565b60405180910390f35b34801561069357600080fd5b506106ae60048036038101906106a99190612a3f565b610f75565b6040516106bb9190612a9a565b60405180910390f35b3480156106d057600080fd5b506106d9610f98565b6040516106e69190612b70565b60405180910390f35b3480156106fb57600080fd5b5061071660048036038101906107119190612c15565b610f9e565b005b34801561072457600080fd5b5061073f600480360381019061073a9190612c15565b610fea565b60405161074c9190612a9a565b60405180910390f35b34801561076157600080fd5b5061077c60048036038101906107779190612cd0565b61100a565b005b34801561078a57600080fd5b506107a560048036038101906107a09190612b21565b611182565b005b3480156107b357600080fd5b506107ce60048036038101906107c99190612c15565b611233565b6040516107db9190612a9a565b60405180910390f35b3480156107f057600080fd5b5061080b60048036038101906108069190612d10565b611253565b005b34801561081957600080fd5b50610834600480360381019061082f9190612cd0565b61132c565b6040516108419190612b70565b60405180910390f35b34801561085657600080fd5b50610871600480360381019061086c9190612c15565b6113b3565b005b34801561087f57600080fd5b50610888611439565b005b34801561089657600080fd5b5061089f6114f0565b6040516108ae93929190612c6c565b60405180910390f35b3480156108c357600080fd5b506108cc611508565b6040516108d99190612d9c565b60405180910390f35b3480156108ee57600080fd5b5061090960048036038101906109049190612c15565b61152e565b6040516109169190612a9a565b60405180910390f35b60606003805461092e90612de6565b80601f016020809104026020016040519081016040528092919081815260200182805461095a90612de6565b80156109a75780601f1061097c576101008083540402835291602001916109a7565b820191906000526020600020905b81548152906001019060200180831161098a57829003601f168201915b5050505050905090565b6000806109bc61154e565b90506109c9818585611556565b600191505092915050565b6109dc611568565b816009600001819055508060096001018190555080826109fc9190612e46565b60096002018190555060196009600201541115610a4e576040517f08c379a0000000000000000000000000000000000000000000000000000000008152600401610a4590612ec6565b60405180910390fd5b5050565b610a5a611568565b80601560008473ffffffffffffffffffffffffffffffffffffffff1673ffffffffffffffffffffffffffffffffffffffff16815260200190815260200160002060006101000a81548160ff0219169083151502179055505050565b6000600254905090565b600080610aca61154e565b9050610ad78582856115ef565b610ae2858585611684565b60019150509392505050565b610af6611568565b81600660000181905550806006600101819055508082610b169190612e46565b60066002018190555060196006600201541115610b68576040517f08c379a0000000000000000000000000000000000000000000000000000000008152600401610b5f90612ec6565b60405180910390fd5b5050565b60006012905090565b601160149054906101000a900460ff1681565b600e5481565b601160159054906101000a900460ff1681565b60008060008373ffffffffffffffffffffffffffffffffffffffff1673ffffffffffffffffffffffffffffffffffffffff168152602001908152602001600020549050919050565b610bf1611568565b610bfb6000611778565b565b610c05611568565b80601360008473ffffffffffffffffffffffffffffffffffffffff1673ffffffffffffffffffffffffffffffffffffffff16815260200190815260200160002060006101000a81548160ff0219169083151502179055505050565b600f60009054906101000a900473ffffffffffffffffffffffffffffffffffffffff1681565b60068060000154908060010154908060020154905083565b610ca6611568565b6001601160146101000a81548160ff021916908315150217905550565b600c5481565b6000600560009054906101000a900473ffffffffffffffffffffffffffffffffffffffff16905090565b60136020528060005260406000206000915054906101000a900460ff1681565b610d1b611568565b80601160156101000a81548160ff02191690831515021790555050565b606060048054610d4790612de6565b80601f0160208091040260200160405190810160405280929190818152602001828054610d7390612de6565b8015610dc05780601f10610d9557610100808354040283529160200191610dc0565b820191906000526020600020905b815481529060010190602001808311610da357829003601f168201915b5050505050905090565b610dd2611568565b601160009054906101000a900473ffffffffffffffffffffffffffffffffffffffff1673ffffffffffffffffffffffffffffffffffffffff168273ffffffffffffffffffffffffffffffffffffffff1603610e62576040517f08c379a0000000000000000000000000000000000000000000000000000000008152600401610e5990612f58565b60405180910390fd5b610e6c828261183e565b5050565b610e78611568565b6103e86005610e85610ab5565b610e8f9190612f78565b610e999190612fe9565b821015610edb576040517f08c379a0000000000000000000000000000000000000000000000000000000008152600401610ed290613066565b60405180910390fd5b60646001610ee7610ab5565b610ef19190612f78565b610efb9190612fe9565b811015610f3d576040517f08c379a0000000000000000000000000000000000000000000000000000000008152600401610f34906130f8565b60405180910390fd5b81600c8190555080600d819055505050565b601160009054906101000a900473ffffffffffffffffffffffffffffffffffffffff1681565b600080610f8061154e565b9050610f8d818585611684565b600191505092915050565b600d5481565b610fa6611568565b80600f60006101000a81548173ffffffffffffffffffffffffffffffffffffffff021916908373ffffffffffffffffffffffffffffffffffffffff16021790555050565b60146020528060005260406000206000915054906101000a900460ff1681565b611012611568565b3073ffffffffffffffffffffffffffffffffffffffff168273ffffffffffffffffffffffffffffffffffffffff1603611080576040517f08c379a000000000000000000000000000000000000000000000000000000000815260040161107790613164565b60405180910390fd5b60008273ffffffffffffffffffffffffffffffffffffffff166370a08231306040518263ffffffff1660e01b81526004016110bb9190612c51565b602060405180830381865afa1580156110d8573d6000803e3d6000fd5b505050506040513d601f19601f820116820180604052508101906110fc9190613199565b90508273ffffffffffffffffffffffffffffffffffffffff1663a9059cbb83836040518363ffffffff1660e01b81526004016111399291906131c6565b6020604051808303816000875af1158015611158573d6000803e3d6000fd5b505050506040513d601f19601f8201168201806040525081019061117c9190613204565b50505050565b61118a611568565b80601260008473ffffffffffffffffffffffffffffffffffffffff1673ffffffffffffffffffffffffffffffffffffffff16815260200190815260200160002060006101000a81548160ff0219169083151502179055508173ffffffffffffffffffffffffffffffffffffffff167f9d8f7706ea1113d1a167b526eca956215946dd36cc7df39eb16180222d8b5df7826040516112279190612a9a565b60405180910390a25050565b60126020528060005260406000206000915054906101000a900460ff1681565b61125b611568565b620186a06001611269610ab5565b6112739190612f78565b61127d9190612fe9565b8110156112bf576040517f08c379a00000000000000000000000000000000000000000000000000000000081526004016112b6906132a3565b60405180910390fd5b6103e860056112cc610ab5565b6112d69190612f78565b6112e09190612fe9565b811115611322576040517f08c379a000000000000000000000000000000000000000000000000000000000815260040161131990613335565b60405180910390fd5b80600e8190555050565b6000600160008473ffffffffffffffffffffffffffffffffffffffff1673ffffffffffffffffffffffffffffffffffffffff16815260200190815260200160002060008373ffffffffffffffffffffffffffffffffffffffff1673ffffffffffffffffffffffffffffffffffffffff16815260200190815260200160002054905092915050565b6113bb611568565b600073ffffffffffffffffffffffffffffffffffffffff168173ffffffffffffffffffffffffffffffffffffffff160361142d5760006040517f1e4fbdf70000000000000000000000000000000000000000000000000000000081526004016114249190612c51565b60405180910390fd5b61143681611778565b50565b611441611568565b60003373ffffffffffffffffffffffffffffffffffffffff164760405161146790613386565b60006040518083038185875af1925050503d80600081146114a4576040519150601f19603f3d011682016040523d82523d6000602084013e6114a9565b606091505b50509050806114ed576040517f08c379a00000000000000000000000000000000000000000000000000000000081526004016114e4906133e7565b60405180910390fd5b50565b60098060000154908060010154908060020154905083565b601060009054906101000a900473ffffffffffffffffffffffffffffffffffffffff1681565b60156020528060005260406000206000915054906101000a900460ff1681565b600033905090565b6115638383836001611901565b505050565b61157061154e565b73ffffffffffffffffffffffffffffffffffffffff1661158e610cc9565b73ffffffffffffffffffffffffffffffffffffffff16146115ed576115b161154e565b6040517f118cdaa70000000000000000000000000000000000000000000000000000000081526004016115e49190612c51565b60405180910390fd5b565b60006115fb848461132c565b90507fffffffffffffffffffffffffffffffffffffffffffffffffffffffffffffffff81101561167e578181101561166e578281836040517ffb8f41b200000000000000000000000000000000000000000000000000000000815260040161166593929190613407565b60405180910390fd5b61167d84848484036000611901565b5b50505050565b600073ffffffffffffffffffffffffffffffffffffffff168373ffffffffffffffffffffffffffffffffffffffff16036116f65760006040517f96c6fd1e0000000000000000000000000000000000000000000000000000000081526004016116ed9190612c51565b60405180910390fd5b600073ffffffffffffffffffffffffffffffffffffffff168273ffffffffffffffffffffffffffffffffffffffff16036117685760006040517fec442f0500000000000000000000000000000000000000000000000000000000815260040161175f9190612c51565b60405180910390fd5b611773838383611ad8565b505050565b6000600560009054906101000a900473ffffffffffffffffffffffffffffffffffffffff16905081600560006101000a81548173ffffffffffffffffffffffffffffffffffffffff021916908373ffffffffffffffffffffffffffffffffffffffff1602179055508173ffffffffffffffffffffffffffffffffffffffff168173ffffffffffffffffffffffffffffffffffffffff167f8be0079c531659141344cd1fd0a4f28419497f9722a3daafe3b4186f6b6457e060405160405180910390a35050565b80601460008473ffffffffffffffffffffffffffffffffffffffff1673ffffffffffffffffffffffffffffffffffffffff16815260200190815260200160002060006101000a81548160ff021916908315150217905550801515601160009054906101000a900473ffffffffffffffffffffffffffffffffffffffff1673ffffffffffffffffffffffffffffffffffffffff167fffa9187bf1f18bf477bd0ea1bcbb64e93b6a98132473929edfce215cd9b16fab60405160405180910390a35050565b600073ffffffffffffffffffffffffffffffffffffffff168473ffffffffffffffffffffffffffffffffffffffff16036119735760006040517fe602df0500000000000000000000000000000000000000000000000000000000815260040161196a9190612c51565b60405180910390fd5b600073ffffffffffffffffffffffffffffffffffffffff168373ffffffffffffffffffffffffffffffffffffffff16036119e55760006040517f94280d620000000000000000000000000000000000000000000000000000000081526004016119dc9190612c51565b60405180910390fd5b81600160008673ffffffffffffffffffffffffffffffffffffffff1673ffffffffffffffffffffffffffffffffffffffff16815260200190815260200160002060008573ffffffffffffffffffffffffffffffffffffffff1673ffffffffffffffffffffffffffffffffffffffff168152602001908152602001600020819055508015611ad2578273ffffffffffffffffffffffffffffffffffffffff168473ffffffffffffffffffffffffffffffffffffffff167f8c5be1e5ebec7d5bd14f71427d1e84f3dd0314c0f7b2291e5b200ac8c7c3b92584604051611ac99190612b70565b60405180910390a35b50505050565b601560008473ffffffffffffffffffffffffffffffffffffffff1673ffffffffffffffffffffffffffffffffffffffff16815260200190815260200160002060009054906101000a900460ff16158015611b7c5750601560008373ffffffffffffffffffffffffffffffffffffffff1673ffffffffffffffffffffffffffffffffffffffff16815260200190815260200160002060009054906101000a900460ff16155b611bbb576040517f08c379a0000000000000000000000000000000000000000000000000000000008152600401611bb29061348a565b60405180910390fd5b601160149054906101000a900460ff16611cb057601260008473ffffffffffffffffffffffffffffffffffffffff1673ffffffffffffffffffffffffffffffffffffffff16815260200190815260200160002060009054906101000a900460ff1680611c705750601260008373ffffffffffffffffffffffffffffffffffffffff1673ffffffffffffffffffffffffffffffffffffffff16815260200190815260200160002060009054906101000a900460ff165b611caf576040517f08c379a0000000000000000000000000000000000000000000000000000000008152600401611ca6906134f6565b60405180910390fd5b5b6000600e54611cbe30610ba1565b10159050808015611cdb5750601160159054906101000a900460ff165b8015611cf45750601160169054906101000a900460ff16155b8015611d4a5750601460008573ffffffffffffffffffffffffffffffffffffffff1673ffffffffffffffffffffffffffffffffffffffff16815260200190815260200160002060009054906101000a900460ff16155b8015611da05750601260008573ffffffffffffffffffffffffffffffffffffffff1673ffffffffffffffffffffffffffffffffffffffff16815260200190815260200160002060009054906101000a900460ff16155b8015611df65750601260008473ffffffffffffffffffffffffffffffffffffffff1673ffffffffffffffffffffffffffffffffffffffff16815260200190815260200160002060009054906101000a900460ff16155b15611e3a576001601160166101000a81548160ff021916908315150217905550611e1e6121b0565b6000601160166101000a81548160ff0219169083151502179055505b6000601160169054906101000a900460ff16159050601260008673ffffffffffffffffffffffffffffffffffffffff1673ffffffffffffffffffffffffffffffffffffffff16815260200190815260200160002060009054906101000a900460ff1680611ef05750601260008573ffffffffffffffffffffffffffffffffffffffff1673ffffffffffffffffffffffffffffffffffffffff16815260200190815260200160002060009054906101000a900460ff165b15611efa57600090505b6000811561219d57601460008773ffffffffffffffffffffffffffffffffffffffff1673ffffffffffffffffffffffffffffffffffffffff16815260200190815260200160002060009054906101000a900460ff168015611fa55750601360008673ffffffffffffffffffffffffffffffffffffffff1673ffffffffffffffffffffffffffffffffffffffff16815260200190815260200160002060009054906101000a900460ff16155b1561206b57600c54841115611fef576040517f08c379a0000000000000000000000000000000000000000000000000000000008152600401611fe690613562565b60405180910390fd5b600d5484611ffc87610ba1565b6120069190612e46565b1115612047576040517f08c379a000000000000000000000000000000000000000000000000000000000815260040161203e906135ce565b60405180910390fd5b60646006600201548561205a9190612f78565b6120649190612fe9565b9050612179565b601460008673ffffffffffffffffffffffffffffffffffffffff1673ffffffffffffffffffffffffffffffffffffffff16815260200190815260200160002060009054906101000a900460ff16801561210e5750601360008773ffffffffffffffffffffffffffffffffffffffff1673ffffffffffffffffffffffffffffffffffffffff16815260200190815260200160002060009054906101000a900460ff16155b1561217857600c54841115612158576040517f08c379a000000000000000000000000000000000000000000000000000000000815260040161214f9061363a565b60405180910390fd5b60646009600201548561216b9190612f78565b6121759190612fe9565b90505b5b600081111561219c5761218d8630836123ac565b8084612199919061365a565b93505b5b6121a88686866123ac565b505050505050565b60006121bb30610ba1565b90506000600e54905060008214806121d35750600081145b156121df5750506123aa565b6014600e546121ee9190612f78565b821115612207576014600e546122049190612f78565b91505b60006002600960020154600960010154856122229190612f78565b61222c9190612fe9565b6122369190612fe9565b905060008184612246919061365a565b90506000479050612256826125d1565b60008147612264919061365a565b90506000600260096001015461227a9190612fe9565b60096002015461228a919061365a565b6009600001548361229b9190612f78565b6122a59190612fe9565b9050600081836122b5919061365a565b90506000600f60009054906101000a900473ffffffffffffffffffffffffffffffffffffffff1673ffffffffffffffffffffffffffffffffffffffff16836040516122ff90613386565b60006040518083038185875af1925050503d806000811461233c576040519150601f19603f3d011682016040523d82523d6000602084013e612341565b606091505b505090506000871180156123555750600082115b156123a0576123648783612814565b7f17bbfb9a6069321b6ded73bd96327c9e6b7212a5cd51ff219cd61370acafb56186838960405161239793929190612c6c565b60405180910390a15b5050505050505050505b565b600073ffffffffffffffffffffffffffffffffffffffff168373ffffffffffffffffffffffffffffffffffffffff16036123fe5780600260008282546123f29190612e46565b925050819055506124d1565b60008060008573ffffffffffffffffffffffffffffffffffffffff1673ffffffffffffffffffffffffffffffffffffffff1681526020019081526020016000205490508181101561248a578381836040517fe450d38c00000000000000000000000000000000000000000000000000000000815260040161248193929190613407565b60405180910390fd5b8181036000808673ffffffffffffffffffffffffffffffffffffffff1673ffffffffffffffffffffffffffffffffffffffff16815260200190815260200160002081905550505b600073ffffffffffffffffffffffffffffffffffffffff168273ffffffffffffffffffffffffffffffffffffffff160361251a5780600260008282540392505081905550612567565b806000808473ffffffffffffffffffffffffffffffffffffffff1673ffffffffffffffffffffffffffffffffffffffff168152602001908152602001600020600082825401925050819055505b8173ffffffffffffffffffffffffffffffffffffffff168373ffffffffffffffffffffffffffffffffffffffff167fddf252ad1be2c89b69c2b068fc378daa952ba7f163c4a11628f55a4df523b3ef836040516125c49190612b70565b60405180910390a3505050565b6000600267ffffffffffffffff8111156125ee576125ed61368e565b5b60405190808252806020026020018201604052801561261c5781602001602082028036833780820191505090505b5090503081600081518110612634576126336136bd565b5b602002602001019073ffffffffffffffffffffffffffffffffffffffff16908173ffffffffffffffffffffffffffffffffffffffff1681525050601060009054906101000a900473ffffffffffffffffffffffffffffffffffffffff1673ffffffffffffffffffffffffffffffffffffffff1663ad5c46486040518163ffffffff1660e01b8152600401602060405180830381865afa1580156126db573d6000803e3d6000fd5b505050506040513d601f19601f820116820180604052508101906126ff9190613701565b81600181518110612713576127126136bd565b5b602002602001019073ffffffffffffffffffffffffffffffffffffffff16908173ffffffffffffffffffffffffffffffffffffffff168152505061277a30601060009054906101000a900473ffffffffffffffffffffffffffffffffffffffff1684611556565b601060009054906101000a900473ffffffffffffffffffffffffffffffffffffffff1673ffffffffffffffffffffffffffffffffffffffff1663791ac9478360008430426040518663ffffffff1660e01b81526004016127de959493929190613827565b600060405180830381600087803b1580156127f857600080fd5b505af115801561280c573d6000803e3d6000fd5b505050505050565b61284130601060009054906101000a900473ffffffffffffffffffffffffffffffffffffffff1684611556565b601060009054906101000a900473ffffffffffffffffffffffffffffffffffffffff1673ffffffffffffffffffffffffffffffffffffffff1663f305d71982308560008061dead426040518863ffffffff1660e01b81526004016128aa96959493929190613881565b60606040518083038185885af11580156128c8573d6000803e3d6000fd5b50505050506040513d601f19601f820116820180604052508101906128ed91906138e2565b5050505050565b600081519050919050565b600082825260208201905092915050565b60005b8381101561292e578082015181840152602081019050612913565b60008484015250505050565b6000601f19601f8301169050919050565b6000612956826128f4565b61296081856128ff565b9350612970818560208601612910565b6129798161293a565b840191505092915050565b6000602082019050818103600083015261299e818461294b565b905092915050565b600080fd5b600073ffffffffffffffffffffffffffffffffffffffff82169050919050565b60006129d6826129ab565b9050919050565b6129e6816129cb565b81146129f157600080fd5b50565b600081359050612a03816129dd565b92915050565b6000819050919050565b612a1c81612a09565b8114612a2757600080fd5b50565b600081359050612a3981612a13565b92915050565b60008060408385031215612a5657612a556129a6565b5b6000612a64858286016129f4565b9250506020612a7585828601612a2a565b9150509250929050565b60008115159050919050565b612a9481612a7f565b82525050565b6000602082019050612aaf6000830184612a8b565b92915050565b60008060408385031215612acc57612acb6129a6565b5b6000612ada85828601612a2a565b9250506020612aeb85828601612a2a565b9150509250929050565b612afe81612a7f565b8114612b0957600080fd5b50565b600081359050612b1b81612af5565b92915050565b60008060408385031215612b3857612b376129a6565b5b6000612b46858286016129f4565b9250506020612b5785828601612b0c565b9150509250929050565b612b6a81612a09565b82525050565b6000602082019050612b856000830184612b61565b92915050565b600080600060608486031215612ba457612ba36129a6565b5b6000612bb2868287016129f4565b9350506020612bc3868287016129f4565b9250506040612bd486828701612a2a565b9150509250925092565b600060ff82169050919050565b612bf481612bde565b82525050565b6000602082019050612c0f6000830184612beb565b92915050565b600060208284031215612c2b57612c2a6129a6565b5b6000612c39848285016129f4565b91505092915050565b612c4b816129cb565b82525050565b6000602082019050612c666000830184612c42565b92915050565b6000606082019050612c816000830186612b61565b612c8e6020830185612b61565b612c9b6040830184612b61565b949350505050565b600060208284031215612cb957612cb86129a6565b5b6000612cc784828501612b0c565b91505092915050565b60008060408385031215612ce757612ce66129a6565b5b6000612cf5858286016129f4565b9250506020612d06858286016129f4565b9150509250929050565b600060208284031215612d2657612d256129a6565b5b6000612d3484828501612a2a565b91505092915050565b6000819050919050565b6000612d62612d5d612d58846129ab565b612d3d565b6129ab565b9050919050565b6000612d7482612d47565b9050919050565b6000612d8682612d69565b9050919050565b612d9681612d7b565b82525050565b6000602082019050612db16000830184612d8d565b92915050565b7f4e487b7100000000000000000000000000000000000000000000000000000000600052602260045260246000fd5b60006002820490506001821680612dfe57607f821691505b602082108103612e1157612e10612db7565b5b50919050565b7f4e487b7100000000000000000000000000000000000000000000000000000000600052601160045260246000fd5b6000612e5182612a09565b9150612e5c83612a09565b9250828201905080821115612e7457612e73612e17565b5b92915050565b7f4d757374206b656570206665657320617420323525206f72206c657373000000600082015250565b6000612eb0601d836128ff565b9150612ebb82612e7a565b602082019050919050565b60006020820190508181036000830152612edf81612ea3565b9050919050565b7f54686520706169722063616e6e6f742062652072656d6f7665642066726f6d2060008201527f6175746f6d617465644d61726b65744d616b6572506169727300000000000000602082015250565b6000612f426039836128ff565b9150612f4d82612ee6565b604082019050919050565b60006020820190508181036000830152612f7181612f35565b9050919050565b6000612f8382612a09565b9150612f8e83612a09565b9250828202612f9c81612a09565b91508282048414831517612fb357612fb2612e17565b5b5092915050565b7f4e487b7100000000000000000000000000000000000000000000000000000000600052601260045260246000fd5b6000612ff482612a09565b9150612fff83612a09565b92508261300f5761300e612fba565b5b828204905092915050565b7f43616e6e6f7420736574206d61785478206c6f776572207468616e20302e3525600082015250565b60006130506020836128ff565b915061305b8261301a565b602082019050919050565b6000602082019050818103600083015261307f81613043565b9050919050565b7f43616e6e6f7420736574206d617857616c6c6574206c6f776572207468616e2060008201527f3125000000000000000000000000000000000000000000000000000000000000602082015250565b60006130e26022836128ff565b91506130ed82613086565b604082019050919050565b60006020820190508181036000830152613111816130d5565b9050919050565b7f43616e6e6f742072656d6f7665206e617469766520746f6b656e000000000000600082015250565b600061314e601a836128ff565b915061315982613118565b602082019050919050565b6000602082019050818103600083015261317d81613141565b9050919050565b60008151905061319381612a13565b92915050565b6000602082840312156131af576131ae6129a6565b5b60006131bd84828501613184565b91505092915050565b60006040820190506131db6000830185612c42565b6131e86020830184612b61565b9392505050565b6000815190506131fe81612af5565b92915050565b60006020828403121561321a576132196129a6565b5b6000613228848285016131ef565b91505092915050565b7f5377617020616d6f756e742063616e6e6f74206265206c6f776572207468616e60008201527f20302e3030312520746f74616c20737570706c792e0000000000000000000000602082015250565b600061328d6035836128ff565b915061329882613231565b604082019050919050565b600060208201905081810360008301526132bc81613280565b9050919050565b7f5377617020616d6f756e742063616e6e6f74206265206869676865722074686160008201527f6e20302e352520746f74616c20737570706c792e000000000000000000000000602082015250565b600061331f6034836128ff565b915061332a826132c3565b604082019050919050565b6000602082019050818103600083015261334e81613312565b9050919050565b600081905092915050565b50565b6000613370600083613355565b915061337b82613360565b600082019050919050565b600061339182613363565b9150819050919050565b7f5472616e73666572206661696c65640000000000000000000000000000000000600082015250565b60006133d1600f836128ff565b91506133dc8261339b565b602082019050919050565b60006020820190508181036000830152613400816133c4565b9050919050565b600060608201905061341c6000830186612c42565b6134296020830185612b61565b6134366040830184612b61565b949350505050565b7f4164647265737320697320626c61636b6c697374656400000000000000000000600082015250565b60006134746016836128ff565b915061347f8261343e565b602082019050919050565b600060208201905081810360008301526134a381613467565b9050919050565b7f54726164696e67206973206e6f74206163746976652e00000000000000000000600082015250565b60006134e06016836128ff565b91506134eb826134aa565b602082019050919050565b6000602082019050818103600083015261350f816134d3565b9050919050565b7f42757920616d6f756e742065786365656473206d61785478416d6f756e740000600082015250565b600061354c601e836128ff565b915061355782613516565b602082019050919050565b6000602082019050818103600083015261357b8161353f565b9050919050565b7f45786365656473206d617857616c6c6574416d6f756e74000000000000000000600082015250565b60006135b86017836128ff565b91506135c382613582565b602082019050919050565b600060208201905081810360008301526135e7816135ab565b9050919050565b7f53656c6c20616d6f756e742065786365656473206d61785478416d6f756e7400600082015250565b6000613624601f836128ff565b915061362f826135ee565b602082019050919050565b6000602082019050818103600083015261365381613617565b9050919050565b600061366582612a09565b915061367083612a09565b925082820390508181111561368857613687612e17565b5b92915050565b7f4e487b7100000000000000000000000000000000000000000000000000000000600052604160045260246000fd5b7f4e487b7100000000000000000000000000000000000000000000000000000000600052603260045260246000fd5b6000815190506136fb816129dd565b92915050565b600060208284031215613717576137166129a6565b5b6000613725848285016136ec565b91505092915050565b6000819050919050565b600061375361374e6137498461372e565b612d3d565b612a09565b9050919050565b61376381613738565b82525050565b600081519050919050565b600082825260208201905092915050565b6000819050602082019050919050565b61379e816129cb565b82525050565b60006137b08383613795565b60208301905092915050565b6000602082019050919050565b60006137d482613769565b6137de8185613774565b93506137e983613785565b8060005b8381101561381a57815161380188826137a4565b975061380c836137bc565b9250506001810190506137ed565b5085935050505092915050565b600060a08201905061383c6000830188612b61565b613849602083018761375a565b818103604083015261385b81866137c9565b905061386a6060830185612c42565b6138776080830184612b61565b9695505050505050565b600060c0820190506138966000830189612c42565b6138a36020830188612b61565b6138b0604083018761375a565b6138bd606083018661375a565b6138ca6080830185612c42565b6138d760a0830184612b61565b979650505050505050565b6000806000606084860312156138fb576138fa6129a6565b5b600061390986828701613184565b935050602061391a86828701613184565b925050604061392b86828701613184565b915050925092509256fea2646970667358221220ec8cc6d34c25e077360224a07ffc3df7b660ecb3f5feaa48f4b05c4fd80df02064736f6c634300081c0033",
  "linkReferences": {},
  "deployedLinkReferences": {}
}